:020000020000FC
:1000000024E038E040E05CE0B1E0C1E050932A0039
:10001000A0E190912900A923A031D1F3BC27B030F1
:10002000B9F70E941400F4CF20932B000E943500F2
:1000300040932B000E94350020932B000E94350036
:1000400040932B000E94420030932B000E94350009
:1000500040932B000E94350030932B000E94350006
:1000600040932B000E944200089564E07FEF8FEFE1
:100070006150715081508030E9F77030D1F76030B5
:10008000B9F708956CE37FEF8FEF615071508150A5
:0E0090008030E9F77030D1F76030B9F708958D
:00000001FF
