:020000020000FC
:1000000043E2409324000E9428000E9435000E9491
:1000100024000E9435000E9428000E9435000E94A2
:1000200024000E9430000E942C000E9435000E9493
:1000300024000E9435000E942C000E9435000E947E
:1000400024000E943000DFCF40E240932500089555
:1000500041E240932500089542E24093250008952F
:1000600050E26FEF7FEF0E94380054E06FEF7FEFB8
:100070007150F1F76150E1F75150D1F70895FFCF7A
:00000001FF
