:020000020000FC
:1000000024E038E040E05CE050932A00A0E19091C9
:100010002900A923A031D1F720932B000E942D00A5
:1000200040932B000E942D0020932B000E942D0056
:1000300040932B000E943A0030932B000E942D0029
:1000400040932B000E942D0030932B000E942D0026
:1000500040932B000E943A00D9CF64E07FEF8FEFEE
:100060006150715081508030E9F77030D1F76030C5
:10007000B9F708956CE37FEF8FEF615071508150B5
:0E0080008030E9F77030D1F76030B9F708959D
:00000001FF
