:020000020000FC
:1000000024E038E040E05CE050932A00C0E1D0E119
:10001000D03111F40E941900A0E190912900A92388
:10002000BA2FBC1BCA2FB03199F7E0E1BE27DB2FF6
:10003000EFCF20932B000E943A0040932B000E94A8
:100040003A0020932B000E943A0040932B000E941C
:10005000470030932B000E943A0040932B000E94EF
:100060003A0030932B000E943A0040932B000E94EC
:100070004700089564E07FEF8FEF61507150815029
:100080008030E9F77030D1F76030B9F708956CE34C
:100090007FEF8FEF6150715081508030E9F7703001
:0800A000D1F76030B9F70895B3
:00000001FF
