:020000020000FC
:1000000024E038E040E05CE050932A00A0E1C0E04A
:10001000BA2FA0E190912900A923B03031F4A0318A
:1000200021F4C03009F0C0E0C0E1C03109F0F0CFE8
:1000300020932B000E94390040932B000E9439002E
:1000400020932B000E94390040932B000E94460011
:1000500030932B000E94390040932B000E943900FE
:1000600030932B000E94390040932B000E944600E1
:10007000089564E07FEF8FEF6150715081508030C0
:10008000E9F77030D1F76030B9F708956CE37FEF8E
:100090008FEF6150715081508030E9F77030D1F7A7
:0600A0006030B9F708957D
:00000001FF
