:100000000C9434000C943E000C943E000C943E0082
:100010000C943E000C943E000C943E000C943E0068
:100020000C943E000C943E000C943E000C943E0058
:100030000C943E000C943E000C943E000C943E0048
:100040000C943E000C943E000C943E000C943E0038
:100050000C943E000C943E000C943E000C943E0028
:100060000C943E000C943E0011241FBECFEFD8E04C
:10007000DEBFCDBF0E9440000C9475000C940000C0
:1000800081E084B9289A2FEF81EF9BE221508040D4
:100090009040E1F700C0000028982FEF81EE94E037
:1000A000215080409040E1F700C00000289A2FEFD7
:1000B00081EF9BE2215080409040E1F700C00000BA
:1000C00028982FEF81EE94E0215080409040E1F796
:1000D00000C00000299A83B190E08095909581FF3F
:0E00E00002C0289AF8CF2898F6CFF894FFCFE8
:00000001FF
