:100000000C9434000C943E000C943E000C943E0082
:100010000C943E000C943E000C943E000C943E0068
:100020000C943E000C943E000C943E000C943E0058
:100030000C943E000C943E000C943E000C943E0048
:100040000C943E000C943E000C943E000C943E0038
:100050000C943E000C943E000C943E000C943E0028
:100060000C943E000C943E0011241FBECFEFD8E04C
:10007000DEBFCDBF0E9441000C9458000C940000DC
:1000800008958AB18C678AB9579820985F9A289A00
:1000900098E04F99FECF8BB189278BB92FEF30E7CE
:1000A00082E0215030408040E1F700C00000F1CFF5
:0400B000F894FFCFF2
:00000001FF
