:100000000C9434000C9449000C9449000C94490061
:100010000C9449000C9449000C9449000C9449003C
:100020000C9449000C9449000C9449000C9449002C
:100030000C9449000C9449000C9449000C9449001C
:100040000C9449000C9449000C9449000C9449000C
:100050000C9449000C9449000C9449000C944900FC
:100060000C9449000C94490011241FBECFEFD8E036
:10007000DEBFCDBF11E0A0E0B1E0E8E0F1E002C0FA
:1000800005900D92A430B107D9F70E947A000C9424
:1000900082000C9400008BB198E089278BB92FEF78
:1000A00081EE94E0215080409040E1F700C00000D4
:1000B00008950E944B000E944B000C944B005B9AE9
:1000C0002FEF8BE49DE1215080409040E1F700C08C
:1000D00000005B982FEF81EE94E02150804090402B
:1000E000E1F700C0000008950E945F000E945F00D9
:1000F0000C945F00539A0E9459000E9474000E9461
:080100005900F9CFF894FFCF7C
:040108005802640035
:00000001FF
