:100000000C9434000C9449000C9449000C94490061
:100010000C9449000C9449000C9449000C9449003C
:100020000C9449000C9449000C9449000C9449002C
:100030000C9449000C9449000C9449000C9449001C
:100040000C9449000C9449000C9449000C9449000C
:100050000C9449000C9449000C9449000C944900FC
:100060000C9449000C94490011241FBECFEFD8E036
:10007000DEBFCDBF11E0A0E0B1E0ECE2F1E002C0F4
:1000800005900D92A830B107D9F70E944B000C944F
:1000900094000C9400008BB183708C638BB92FEFAC
:1000A00081EF9BE2215080409040E1F700C00000CA
:1000B0008BB183708BB92FEF81EE94E0215080409B
:1000C0009040E1F700C000008BB183708C638BB966
:1000D0002FEF81EF9BE2215080409040E1F700C07C
:1000E00000008BB183708BB92FEF81EE94E021502B
:1000F00080409040E1F700C000002FEF81EF9BE2CD
:10010000215080409040E1F700C000008AB1837028
:100110008C638AB95E9A8CE34E9903C09BB18BB90C
:0C012000FBCF9BB11BB8F8CFF894FFCFC9
:08012C00400003003C0040000C
:00000001FF
