:100000000C9434000C943E000C943E000C943E0082
:100010000C943E000C943E000C943E000C943E0068
:100020000C943E000C943E000C943E000C943E0058
:100030000C943E000C943E000C943E000C943E0048
:100040000C943E000C943E000C943E000C943E0038
:100050000C943E000C943E000C943E000C943E0028
:100060000C943E000C943E0011241FBECFEFD8E04C
:10007000DEBFCDBF0E9440000C9473000C940000C2
:10008000259A80E295B1982795B92FEF3AE693E04B
:10009000215030409040E1F700C0000095B1982712
:1000A00095B92FEF3AE693E0215030409040E1F7C8
:1000B00000C0000095B1982795B92FEF3AE693E07C
:1000C000215030409040E1F700C0000095B19827E2
:1000D00095B92FEF39E698E1215030409040E1F793
:0A00E00000C00000CFCFF894FFCF5E
:00000001FF
