:020000020000FC
:1000000024E038E040E05CE050932A0020932B008D
:100010000E94270040932B000E94270020932B0072
:100020000E94270040932B000E94340030932B0045
:100030000E94270040932B000E94270030932B0042
:100040000E94270040932B000E943400DFCF64E021
:100050007FEF8FEF6150715081508030E9F7703041
:10006000D1F76030B9F708956CE37FEF8FEF6150FF
:10007000715081508030E9F77030D1F76030B9F7B6
:020080000895E1
:00000001FF
