:100000000C9434000C9449000C9449000C94490061
:100010000C9449000C9449000C9449000C9449003C
:100020000C9449000C9449000C9449000C9449002C
:100030000C9449000C9449000C9449000C9449001C
:100040000C9449000C9449000C9449000C9449000C
:100050000C9449000C9449000C9449000C944900FC
:100060000C9449000C94490011241FBECFEFD8E036
:10007000DEBFCDBF11E0A0E0B1E0E8E1F1E002C0F9
:1000800005900D92A830B107D9F70E944B000C944F
:100090008A000C9400008AB18C638AB99CE39BB9F6
:1000A0002FEF3FE047E2215030404040E1F700C0F1
:1000B000000083EC8BB92FEF31EE44E0215030404B
:1000C0004040E1F700C000009BB99FEF2FE037E20E
:1000D000915020403040E1F700C000008BB94FEF55
:1000E00081EE94E0415080409040E1F700C0000074
:1000F00090E08BB18370892B8BB92FEF37E94AE3FE
:10010000215030404040E1F700C000009C5F903437
:0801100081F7EECFF894FFCF58
:080118000500040003000200D1
:00000001FF
